{
  "_format": "hh3-artifact-1",
  "contractName": "AgentTreasury",
  "sourceName": "contracts/AgentTreasury.sol",
  "abi": [
    {
      "inputs": [
        {
          "internalType": "address",
          "name": "_erc8004",
          "type": "address"
        }
      ],
      "stateMutability": "nonpayable",
      "type": "constructor"
    },
    {
      "inputs": [],
      "name": "ECDSAInvalidSignature",
      "type": "error"
    },
    {
      "inputs": [
        {
          "internalType": "uint256",
          "name": "length",
          "type": "uint256"
        }
      ],
      "name": "ECDSAInvalidSignatureLength",
      "type": "error"
    },
    {
      "inputs": [
        {
          "internalType": "bytes32",
          "name": "s",
          "type": "bytes32"
        }
      ],
      "name": "ECDSAInvalidSignatureS",
      "type": "error"
    },
    {
      "inputs": [],
      "name": "InvalidShortString",
      "type": "error"
    },
    {
      "inputs": [
        {
          "internalType": "address",
          "name": "owner",
          "type": "address"
        }
      ],
      "name": "OwnableInvalidOwner",
      "type": "error"
    },
    {
      "inputs": [
        {
          "internalType": "address",
          "name": "account",
          "type": "address"
        }
      ],
      "name": "OwnableUnauthorizedAccount",
      "type": "error"
    },
    {
      "inputs": [
        {
          "internalType": "string",
          "name": "str",
          "type": "string"
        }
      ],
      "name": "StringTooLong",
      "type": "error"
    },
    {
      "anonymous": false,
      "inputs": [
        {
          "indexed": true,
          "internalType": "address",
          "name": "admin",
          "type": "address"
        },
        {
          "indexed": false,
          "internalType": "bool",
          "name": "status",
          "type": "bool"
        }
      ],
      "name": "AdminUpdated",
      "type": "event"
    },
    {
      "anonymous": false,
      "inputs": [
        {
          "indexed": true,
          "internalType": "uint256",
          "name": "agentId",
          "type": "uint256"
        },
        {
          "indexed": false,
          "internalType": "string",
          "name": "key",
          "type": "string"
        }
      ],
      "name": "AgentMetadataSet",
      "type": "event"
    },
    {
      "anonymous": false,
      "inputs": [
        {
          "indexed": true,
          "internalType": "uint256",
          "name": "agentId",
          "type": "uint256"
        },
        {
          "indexed": true,
          "internalType": "address",
          "name": "wallet",
          "type": "address"
        }
      ],
      "name": "AgentWalletSet",
      "type": "event"
    },
    {
      "anonymous": false,
      "inputs": [],
      "name": "EIP712DomainChanged",
      "type": "event"
    },
    {
      "anonymous": false,
      "inputs": [
        {
          "indexed": true,
          "internalType": "address",
          "name": "previousOwner",
          "type": "address"
        },
        {
          "indexed": true,
          "internalType": "address",
          "name": "newOwner",
          "type": "address"
        }
      ],
      "name": "OwnershipTransferred",
      "type": "event"
    },
    {
      "inputs": [],
      "name": "agentRegistry",
      "outputs": [
        {
          "internalType": "address",
          "name": "",
          "type": "address"
        }
      ],
      "stateMutability": "view",
      "type": "function"
    },
    {
      "inputs": [],
      "name": "eip712Domain",
      "outputs": [
        {
          "internalType": "bytes1",
          "name": "fields",
          "type": "bytes1"
        },
        {
          "internalType": "string",
          "name": "name",
          "type": "string"
        },
        {
          "internalType": "string",
          "name": "version",
          "type": "string"
        },
        {
          "internalType": "uint256",
          "name": "chainId",
          "type": "uint256"
        },
        {
          "internalType": "address",
          "name": "verifyingContract",
          "type": "address"
        },
        {
          "internalType": "bytes32",
          "name": "salt",
          "type": "bytes32"
        },
        {
          "internalType": "uint256[]",
          "name": "extensions",
          "type": "uint256[]"
        }
      ],
      "stateMutability": "view",
      "type": "function"
    },
    {
      "inputs": [],
      "name": "erc8004",
      "outputs": [
        {
          "internalType": "contract IERC8004Registry",
          "name": "",
          "type": "address"
        }
      ],
      "stateMutability": "view",
      "type": "function"
    },
    {
      "inputs": [
        {
          "internalType": "uint256",
          "name": "agentId",
          "type": "uint256"
        },
        {
          "internalType": "address",
          "name": "userWallet",
          "type": "address"
        },
        {
          "internalType": "uint256",
          "name": "walletDeadline",
          "type": "uint256"
        },
        {
          "internalType": "bytes",
          "name": "walletSig",
          "type": "bytes"
        }
      ],
      "name": "initAgent",
      "outputs": [],
      "stateMutability": "nonpayable",
      "type": "function"
    },
    {
      "inputs": [
        {
          "internalType": "address",
          "name": "",
          "type": "address"
        }
      ],
      "name": "isAdmin",
      "outputs": [
        {
          "internalType": "bool",
          "name": "",
          "type": "bool"
        }
      ],
      "stateMutability": "view",
      "type": "function"
    },
    {
      "inputs": [
        {
          "internalType": "uint256",
          "name": "",
          "type": "uint256"
        }
      ],
      "name": "nonces",
      "outputs": [
        {
          "internalType": "uint256",
          "name": "",
          "type": "uint256"
        }
      ],
      "stateMutability": "view",
      "type": "function"
    },
    {
      "inputs": [
        {
          "internalType": "address",
          "name": "",
          "type": "address"
        },
        {
          "internalType": "address",
          "name": "",
          "type": "address"
        },
        {
          "internalType": "uint256",
          "name": "",
          "type": "uint256"
        },
        {
          "internalType": "bytes",
          "name": "",
          "type": "bytes"
        }
      ],
      "name": "onERC721Received",
      "outputs": [
        {
          "internalType": "bytes4",
          "name": "",
          "type": "bytes4"
        }
      ],
      "stateMutability": "view",
      "type": "function"
    },
    {
      "inputs": [],
      "name": "owner",
      "outputs": [
        {
          "internalType": "address",
          "name": "",
          "type": "address"
        }
      ],
      "stateMutability": "view",
      "type": "function"
    },
    {
      "inputs": [],
      "name": "renounceOwnership",
      "outputs": [],
      "stateMutability": "view",
      "type": "function"
    },
    {
      "inputs": [
        {
          "internalType": "address",
          "name": "admin",
          "type": "address"
        },
        {
          "internalType": "bool",
          "name": "status",
          "type": "bool"
        }
      ],
      "name": "setAdmin",
      "outputs": [],
      "stateMutability": "nonpayable",
      "type": "function"
    },
    {
      "inputs": [
        {
          "internalType": "address",
          "name": "_agentRegistry",
          "type": "address"
        }
      ],
      "name": "setAgentRegistry",
      "outputs": [],
      "stateMutability": "nonpayable",
      "type": "function"
    },
    {
      "inputs": [
        {
          "internalType": "address",
          "name": "newOwner",
          "type": "address"
        }
      ],
      "name": "transferOwnership",
      "outputs": [],
      "stateMutability": "nonpayable",
      "type": "function"
    },
    {
      "inputs": [
        {
          "internalType": "uint256",
          "name": "agentId",
          "type": "uint256"
        },
        {
          "internalType": "address",
          "name": "newWallet",
          "type": "address"
        },
        {
          "internalType": "uint256",
          "name": "adminDeadline",
          "type": "uint256"
        },
        {
          "internalType": "bytes",
          "name": "adminSig",
          "type": "bytes"
        },
        {
          "internalType": "uint256",
          "name": "walletDeadline",
          "type": "uint256"
        },
        {
          "internalType": "bytes",
          "name": "walletSig",
          "type": "bytes"
        }
      ],
      "name": "updateAgentWallet",
      "outputs": [],
      "stateMutability": "nonpayable",
      "type": "function"
    },
    {
      "inputs": [
        {
          "internalType": "uint256",
          "name": "agentId",
          "type": "uint256"
        },
        {
          "internalType": "string",
          "name": "key",
          "type": "string"
        },
        {
          "internalType": "bytes",
          "name": "value",
          "type": "bytes"
        },
        {
          "internalType": "uint256",
          "name": "deadline",
          "type": "uint256"
        },
        {
          "internalType": "bytes",
          "name": "adminSig",
          "type": "bytes"
        }
      ],
      "name": "updateMetadata",
      "outputs": [],
      "stateMutability": "nonpayable",
      "type": "function"
    }
  ],
  "bytecode": "0x610180604052348015610010575f5ffd5b50604051611b00380380611b0083398101604081905261002f91610271565b604080518082018252600d81526c4167656e74547265617375727960981b602080830191909152825180840190935260018352603160f81b9083015290338061009257604051631e4fbdf760e01b81525f60048201526024015b60405180910390fd5b61009b816101b3565b506100a7826001610202565b610120526100b6816002610202565b61014052815160208084019190912060e052815190820120610100524660a05261014260e05161010051604080517f8b73c3c69bb8fe3d512ecc4cf759cc79239f7b179b0ffacaa9a75d522b39400f60208201529081019290925260608201524660808201523060a08201525f9060c00160405160208183030381529060405280519060200120905090565b60805250503060c0526001600160a01b0381166101a15760405162461bcd60e51b815260206004820152601560248201527f5a65726f20616464726573733a206572633830303400000000000000000000006044820152606401610089565b6001600160a01b031661016052610448565b5f80546001600160a01b038381166001600160a01b0319831681178455604051919092169283917f8be0079c531659141344cd1fd0a4f28419497f9722a3daafe3b4186f6b6457e09190a35050565b5f60208351101561021d5761021683610234565b905061022e565b816102288482610336565b5060ff90505b92915050565b5f5f829050601f8151111561025e578260405163305a27a960e01b815260040161008991906103f0565b805161026982610425565b179392505050565b5f60208284031215610281575f5ffd5b81516001600160a01b0381168114610297575f5ffd5b9392505050565b634e487b7160e01b5f52604160045260245ffd5b600181811c908216806102c657607f821691505b6020821081036102e457634e487b7160e01b5f52602260045260245ffd5b50919050565b601f82111561033157805f5260205f20601f840160051c8101602085101561030f5750805b601f840160051c820191505b8181101561032e575f815560010161031b565b50505b505050565b81516001600160401b0381111561034f5761034f61029e565b6103638161035d84546102b2565b846102ea565b6020601f821160018114610395575f831561037e5750848201515b5f19600385901b1c1916600184901b17845561032e565b5f84815260208120601f198516915b828110156103c457878501518255602094850194600190920191016103a4565b50848210156103e157868401515f19600387901b60f8161c191681555b50505050600190811b01905550565b602081525f82518060208401528060208501604085015e5f604082850101526040601f19601f83011684010191505092915050565b805160208083015191908110156102e4575f1960209190910360031b1b16919050565b60805160a05160c05160e0516101005161012051610140516101605161163b6104c55f395f818160ee0152818161027e015281816106d80152818161090c01528181610a7d0152610b4901525f610c9301525f610c6101525f610ee401525f610ebc01525f610e1701525f610e4101525f610e6b015261163b5ff3fe608060405234801561000f575f5ffd5b50600436106100e5575f3560e01c8063715018a611610088578063a2e653fa11610063578063a2e653fa14610226578063c11493e314610239578063c50c5ac71461024c578063f2fde38b1461025f575f5ffd5b8063715018a6146101f357806384b0196e146101fb5780638da5cb5b14610216575f5ffd5b8063150b7a02116100c3578063150b7a021461016d57806324d7806c1461019957806328342ecf146101cb5780634b0bddd2146101e0575f5ffd5b8063094d1f0d146100e95780630d1cfcae1461012d578063141a468c14610140575b5f5ffd5b6101107f000000000000000000000000000000000000000000000000000000000000000081565b6040516001600160a01b0390911681526020015b60405180910390f35b600354610110906001600160a01b031681565b61015f61014e366004611165565b60056020525f908152604090205481565b604051908152602001610124565b61018061017b3660046111d5565b610272565b6040516001600160e01b03199091168152602001610124565b6101bb6101a7366004611243565b60046020525f908152604090205460ff1681565b6040519015158152602001610124565b6101de6101d9366004611243565b610302565b005b6101de6101ee366004611265565b6103d2565b6101de61047d565b6102036104cd565b60405161012497969594939291906112ce565b5f546001600160a01b0316610110565b6101de610234366004611364565b61050f565b6101de610247366004611415565b610787565b6101de61025a366004611492565b6109b6565b6101de61026d366004611243565b610bef565b5f336001600160a01b037f000000000000000000000000000000000000000000000000000000000000000016146102f05760405162461bcd60e51b815260206004820152601f60248201527f4f6e6c792064657369676e61746564204552433830303420616c6c6f7765640060448201526064015b60405180910390fd5b50630a85bd0160e11b95945050505050565b61030a610c2c565b6003546001600160a01b03161561035a5760405162461bcd60e51b8152602060048201526014602482015273149959da5cdd1c9e48185b1c9958591e481cd95d60621b60448201526064016102e7565b6001600160a01b0381166103b05760405162461bcd60e51b815260206004820152601b60248201527f5a65726f20616464726573733a206167656e745265676973747279000000000060448201526064016102e7565b600380546001600160a01b0319166001600160a01b0392909216919091179055565b6103da610c2c565b6001600160a01b03821661041f5760405162461bcd60e51b815260206004820152600c60248201526b5a65726f206164647265737360a01b60448201526064016102e7565b6001600160a01b0382165f81815260046020908152604091829020805460ff191685151590811790915591519182527f235bc17e7930760029e9f4d860a2a8089976de5b381cf8380fc11c1d88a11133910160405180910390a25050565b610485610c2c565b60405162461bcd60e51b815260206004820152601f60248201527f4f776e6572736869702072656e6f756e63656d656e742064697361626c65640060448201526064016102e7565b5f6060805f5f5f60606104de610c5a565b6104e6610c8c565b604080515f80825260208201909252600f60f81b9b939a50919850469750309650945092509050565b824211156105595760405162461bcd60e51b815260206004820152601760248201527610591b5a5b881cda59db985d1d5c9948195e1c1a5c9959604a1b60448201526064016102e7565b5f6106197ff83ee0ae7f5dfb088c6f12f25db86e25bea547078f5f8e2bd5966609b914a1818a8a8a60405161058f9291906114b8565b604051809103902089896040516105a79291906114b8565b60408051918290039091205f8f81526005602052918220805491926105cb836114c7565b909155506040805160208101969096528501939093526060840191909152608083015260a082015260c0810186905260e0015b60405160208183030381529060405280519060200120610cb9565b905060045f61065f85858080601f0160208091040260200160405190810160405280939291908181526020018383808284375f920191909152508793925050610ceb9050565b6001600160a01b0316815260208101919091526040015f205460ff166106c15760405162461bcd60e51b8152602060048201526017602482015276496e76616c69642061646d696e207369676e617475726560481b60448201526064016102e7565b604051632333246d60e11b81526001600160a01b037f0000000000000000000000000000000000000000000000000000000000000000169063466648da90610715908c908c908c908c908c90600401611513565b5f604051808303815f87803b15801561072c575f5ffd5b505af115801561073e573d5f5f3e3d5ffd5b50505050887feb4006654c41d961528617b7ba45e29db485503b687c92de47bbc674d2c5a3ed898960405161077492919061154b565b60405180910390a2505050505050505050565b854211156107d15760405162461bcd60e51b815260206004820152601760248201527610591b5a5b881cda59db985d1d5c9948195e1c1a5c9959604a1b60448201526064016102e7565b5f888152600560205260408120805461084d917f779b25b7d65cf12b10c36891573baf610352f9aa182f21e4a41c53c6d2e442c2918c918c919086610815836114c7565b909155506040805160208101959095528401929092526001600160a01b03166060830152608082015260a0810189905260c0016105fe565b905060045f61089388888080601f0160208091040260200160405190810160405280939291908181526020018383808284375f920191909152508793925050610ceb9050565b6001600160a01b0316815260208101919091526040015f205460ff166108f55760405162461bcd60e51b8152602060048201526017602482015276496e76616c69642061646d696e207369676e617475726560481b60448201526064016102e7565b60405163168f7ad760e11b81526001600160a01b037f00000000000000000000000000000000000000000000000000000000000000001690632d1ef5ae90610949908c908c90899089908990600401611566565b5f604051808303815f87803b158015610960575f5ffd5b505af1158015610972573d5f5f3e3d5ffd5b50506040516001600160a01b038b1692508b91507fc1b62bacf2a2f4363c2190e00f2370f3b563001a0c56c73eae69619e58e9624c905f90a3505050505050505050565b6003546001600160a01b0316610a0e5760405162461bcd60e51b815260206004820152601760248201527f5265676973747279206e6f7420636f6e6669677572656400000000000000000060448201526064016102e7565b6003546001600160a01b03163314610a5d5760405162461bcd60e51b81526020600482015260126024820152714f6e6c79204167656e74526567697374727960701b60448201526064016102e7565b6040516331a9108f60e11b81526004810186905230906001600160a01b037f00000000000000000000000000000000000000000000000000000000000000001690636352211e90602401602060405180830381865afa158015610ac2573d5f5f3e3d5ffd5b505050506040513d601f19601f82011682018060405250810190610ae6919061159e565b6001600160a01b031614610b325760405162461bcd60e51b81526020600482015260136024820152724e4654206e6f7420696e20747265617375727960681b60448201526064016102e7565b60405163168f7ad760e11b81526001600160a01b037f00000000000000000000000000000000000000000000000000000000000000001690632d1ef5ae90610b869088908890889088908890600401611566565b5f604051808303815f87803b158015610b9d575f5ffd5b505af1158015610baf573d5f5f3e3d5ffd5b50506040516001600160a01b03871692508791507fc1b62bacf2a2f4363c2190e00f2370f3b563001a0c56c73eae69619e58e9624c905f90a35050505050565b610bf7610c2c565b6001600160a01b038116610c2057604051631e4fbdf760e01b81525f60048201526024016102e7565b610c2981610d13565b50565b5f546001600160a01b03163314610c585760405163118cdaa760e01b81523360048201526024016102e7565b565b6060610c877f00000000000000000000000000000000000000000000000000000000000000006001610d62565b905090565b6060610c877f00000000000000000000000000000000000000000000000000000000000000006002610d62565b5f610ce5610cc5610e0b565b8360405161190160f01b8152600281019290925260228201526042902090565b92915050565b5f5f5f5f610cf98686610f34565b925092509250610d098282610f7d565b5090949350505050565b5f80546001600160a01b038381166001600160a01b0319831681178455604051919092169283917f8be0079c531659141344cd1fd0a4f28419497f9722a3daafe3b4186f6b6457e09190a35050565b606060ff8314610d7c57610d7583611039565b9050610ce5565b818054610d88906115b9565b80601f0160208091040260200160405190810160405280929190818152602001828054610db4906115b9565b8015610dff5780601f10610dd657610100808354040283529160200191610dff565b820191905f5260205f20905b815481529060010190602001808311610de257829003601f168201915b50505050509050610ce5565b5f306001600160a01b037f000000000000000000000000000000000000000000000000000000000000000016148015610e6357507f000000000000000000000000000000000000000000000000000000000000000046145b15610e8d57507f000000000000000000000000000000000000000000000000000000000000000090565b610c87604080517f8b73c3c69bb8fe3d512ecc4cf759cc79239f7b179b0ffacaa9a75d522b39400f60208201527f0000000000000000000000000000000000000000000000000000000000000000918101919091527f000000000000000000000000000000000000000000000000000000000000000060608201524660808201523060a08201525f9060c00160405160208183030381529060405280519060200120905090565b5f5f5f8351604103610f6b576020840151604085015160608601515f1a610f5d88828585611076565b955095509550505050610f76565b505081515f91506002905b9250925092565b5f826003811115610f9057610f906115f1565b03610f99575050565b6001826003811115610fad57610fad6115f1565b03610fcb5760405163f645eedf60e01b815260040160405180910390fd5b6002826003811115610fdf57610fdf6115f1565b036110005760405163fce698f760e01b8152600481018290526024016102e7565b6003826003811115611014576110146115f1565b03611035576040516335e2f38360e21b8152600481018290526024016102e7565b5050565b60605f6110458361113e565b6040805160208082528183019092529192505f91906020820181803683375050509182525060208101929092525090565b5f80807f7fffffffffffffffffffffffffffffff5d576e7357a4501ddfe92f46681b20a08411156110af57505f91506003905082611134565b604080515f808252602082018084528a905260ff891692820192909252606081018790526080810186905260019060a0016020604051602081039080840390855afa158015611100573d5f5f3e3d5ffd5b5050604051601f1901519150506001600160a01b03811661112b57505f925060019150829050611134565b92505f91508190505b9450945094915050565b5f60ff8216601f811115610ce557604051632cd44ac360e21b815260040160405180910390fd5b5f60208284031215611175575f5ffd5b5035919050565b6001600160a01b0381168114610c29575f5ffd5b5f5f83601f8401126111a0575f5ffd5b50813567ffffffffffffffff8111156111b7575f5ffd5b6020830191508360208285010111156111ce575f5ffd5b9250929050565b5f5f5f5f5f608086880312156111e9575f5ffd5b85356111f48161117c565b945060208601356112048161117c565b935060408601359250606086013567ffffffffffffffff811115611226575f5ffd5b61123288828901611190565b969995985093965092949392505050565b5f60208284031215611253575f5ffd5b813561125e8161117c565b9392505050565b5f5f60408385031215611276575f5ffd5b82356112818161117c565b915060208301358015158114611295575f5ffd5b809150509250929050565b5f81518084528060208401602086015e5f602082860101526020601f19601f83011685010191505092915050565b60ff60f81b8816815260e060208201525f6112ec60e08301896112a0565b82810360408401526112fe81896112a0565b606084018890526001600160a01b038716608085015260a0840186905283810360c0850152845180825260208087019350909101905f5b81811015611353578351835260209384019390920191600101611335565b50909b9a5050505050505050505050565b5f5f5f5f5f5f5f5f60a0898b03121561137b575f5ffd5b88359750602089013567ffffffffffffffff811115611398575f5ffd5b6113a48b828c01611190565b909850965050604089013567ffffffffffffffff8111156113c3575f5ffd5b6113cf8b828c01611190565b90965094505060608901359250608089013567ffffffffffffffff8111156113f5575f5ffd5b6114018b828c01611190565b999c989b5096995094979396929594505050565b5f5f5f5f5f5f5f5f60c0898b03121561142c575f5ffd5b88359750602089013561143e8161117c565b965060408901359550606089013567ffffffffffffffff811115611460575f5ffd5b61146c8b828c01611190565b9096509450506080890135925060a089013567ffffffffffffffff8111156113f5575f5ffd5b5f5f5f5f5f608086880312156114a6575f5ffd5b8535945060208601356112048161117c565b818382375f9101908152919050565b5f600182016114e457634e487b7160e01b5f52601160045260245ffd5b5060010190565b81835281816020850137505f828201602090810191909152601f909101601f19169091010190565b858152606060208201525f61152c6060830186886114eb565b828103604084015261153f8185876114eb565b98975050505050505050565b602081525f61155e6020830184866114eb565b949350505050565b85815260018060a01b0385166020820152836040820152608060608201525f6115936080830184866114eb565b979650505050505050565b5f602082840312156115ae575f5ffd5b815161125e8161117c565b600181811c908216806115cd57607f821691505b6020821081036115eb57634e487b7160e01b5f52602260045260245ffd5b50919050565b634e487b7160e01b5f52602160045260245ffdfea2646970667358221220b4532ac5f600160e28ec941da9259912b413e88bbd9a75c30ddbf3d88f68de6a64736f6c634300081e0033",
  "linkReferences": {},
  "deployedLinkReferences": {},
  "immutableReferences": {
    "3404": [
      {
        "length": 32,
        "start": 3691
      }
    ],
    "3406": [
      {
        "length": 32,
        "start": 3649
      }
    ],
    "3408": [
      {
        "length": 32,
        "start": 3607
      }
    ],
    "3410": [
      {
        "length": 32,
        "start": 3772
      }
    ],
    "3412": [
      {
        "length": 32,
        "start": 3812
      }
    ],
    "3415": [
      {
        "length": 32,
        "start": 3169
      }
    ],
    "3418": [
      {
        "length": 32,
        "start": 3219
      }
    ],
    "7368": [
      {
        "length": 32,
        "start": 238
      },
      {
        "length": 32,
        "start": 638
      },
      {
        "length": 32,
        "start": 1752
      },
      {
        "length": 32,
        "start": 2316
      },
      {
        "length": 32,
        "start": 2685
      },
      {
        "length": 32,
        "start": 2889
      }
    ]
  },
  "inputSourceName": "project/contracts/AgentTreasury.sol",
  "buildInfoId": "solc-0_8_30-9491603a118ceb2527bf3fd2abb375b334c601a9"
}