{
  "_format": "hh3-artifact-1",
  "contractName": "AgentRegistry",
  "sourceName": "contracts/AgentRegistry.sol",
  "abi": [
    {
      "inputs": [
        {
          "internalType": "address",
          "name": "_erc8004",
          "type": "address"
        },
        {
          "internalType": "address",
          "name": "_treasury",
          "type": "address"
        }
      ],
      "stateMutability": "nonpayable",
      "type": "constructor"
    },
    {
      "inputs": [
        {
          "internalType": "address",
          "name": "owner",
          "type": "address"
        }
      ],
      "name": "OwnableInvalidOwner",
      "type": "error"
    },
    {
      "inputs": [
        {
          "internalType": "address",
          "name": "account",
          "type": "address"
        }
      ],
      "name": "OwnableUnauthorizedAccount",
      "type": "error"
    },
    {
      "anonymous": false,
      "inputs": [
        {
          "indexed": true,
          "internalType": "uint256",
          "name": "agentId",
          "type": "uint256"
        },
        {
          "indexed": true,
          "internalType": "address",
          "name": "beneficialOwner",
          "type": "address"
        }
      ],
      "name": "AgentRegistered",
      "type": "event"
    },
    {
      "anonymous": false,
      "inputs": [
        {
          "indexed": true,
          "internalType": "address",
          "name": "previousOwner",
          "type": "address"
        },
        {
          "indexed": true,
          "internalType": "address",
          "name": "newOwner",
          "type": "address"
        }
      ],
      "name": "OwnershipTransferred",
      "type": "event"
    },
    {
      "inputs": [
        {
          "internalType": "address",
          "name": "owner",
          "type": "address"
        },
        {
          "internalType": "uint256",
          "name": "index",
          "type": "uint256"
        }
      ],
      "name": "agentOfOwnerByIndex",
      "outputs": [
        {
          "internalType": "uint256",
          "name": "",
          "type": "uint256"
        }
      ],
      "stateMutability": "view",
      "type": "function"
    },
    {
      "inputs": [],
      "name": "agentTreasury",
      "outputs": [
        {
          "internalType": "contract IAgentTreasury",
          "name": "",
          "type": "address"
        }
      ],
      "stateMutability": "view",
      "type": "function"
    },
    {
      "inputs": [],
      "name": "erc8004",
      "outputs": [
        {
          "internalType": "contract IERC8004Registry",
          "name": "",
          "type": "address"
        }
      ],
      "stateMutability": "view",
      "type": "function"
    },
    {
      "inputs": [
        {
          "internalType": "uint256",
          "name": "agentId",
          "type": "uint256"
        }
      ],
      "name": "getAgentInfo",
      "outputs": [
        {
          "internalType": "address",
          "name": "beneficialOwner",
          "type": "address"
        },
        {
          "internalType": "address",
          "name": "agentWallet",
          "type": "address"
        },
        {
          "internalType": "uint256",
          "name": "createdAt",
          "type": "uint256"
        }
      ],
      "stateMutability": "view",
      "type": "function"
    },
    {
      "inputs": [
        {
          "internalType": "uint256",
          "name": "agentId",
          "type": "uint256"
        }
      ],
      "name": "getAgentOwner",
      "outputs": [
        {
          "internalType": "address",
          "name": "",
          "type": "address"
        }
      ],
      "stateMutability": "view",
      "type": "function"
    },
    {
      "inputs": [
        {
          "internalType": "address",
          "name": "owner",
          "type": "address"
        }
      ],
      "name": "getAgentsByOwner",
      "outputs": [
        {
          "internalType": "uint256[]",
          "name": "",
          "type": "uint256[]"
        }
      ],
      "stateMutability": "view",
      "type": "function"
    },
    {
      "inputs": [
        {
          "internalType": "uint256",
          "name": "agentId",
          "type": "uint256"
        }
      ],
      "name": "isIdTaken",
      "outputs": [
        {
          "internalType": "bool",
          "name": "",
          "type": "bool"
        }
      ],
      "stateMutability": "view",
      "type": "function"
    },
    {
      "inputs": [
        {
          "internalType": "uint256",
          "name": "agentId",
          "type": "uint256"
        },
        {
          "internalType": "address",
          "name": "addr",
          "type": "address"
        }
      ],
      "name": "isOwner",
      "outputs": [
        {
          "internalType": "bool",
          "name": "",
          "type": "bool"
        }
      ],
      "stateMutability": "view",
      "type": "function"
    },
    {
      "inputs": [
        {
          "internalType": "address",
          "name": "",
          "type": "address"
        },
        {
          "internalType": "address",
          "name": "",
          "type": "address"
        },
        {
          "internalType": "uint256",
          "name": "",
          "type": "uint256"
        },
        {
          "internalType": "bytes",
          "name": "",
          "type": "bytes"
        }
      ],
      "name": "onERC721Received",
      "outputs": [
        {
          "internalType": "bytes4",
          "name": "",
          "type": "bytes4"
        }
      ],
      "stateMutability": "view",
      "type": "function"
    },
    {
      "inputs": [],
      "name": "owner",
      "outputs": [
        {
          "internalType": "address",
          "name": "",
          "type": "address"
        }
      ],
      "stateMutability": "view",
      "type": "function"
    },
    {
      "inputs": [
        {
          "components": [
            {
              "internalType": "string",
              "name": "name",
              "type": "string"
            },
            {
              "internalType": "string",
              "name": "description",
              "type": "string"
            },
            {
              "internalType": "string",
              "name": "version",
              "type": "string"
            },
            {
              "internalType": "string",
              "name": "endpoint",
              "type": "string"
            },
            {
              "internalType": "string[]",
              "name": "capabilities",
              "type": "string[]"
            },
            {
              "internalType": "string",
              "name": "avatarURI",
              "type": "string"
            },
            {
              "internalType": "bytes",
              "name": "extra",
              "type": "bytes"
            }
          ],
          "internalType": "struct AgentCard",
          "name": "card",
          "type": "tuple"
        },
        {
          "internalType": "uint256",
          "name": "walletDeadline",
          "type": "uint256"
        },
        {
          "internalType": "bytes",
          "name": "walletSig",
          "type": "bytes"
        }
      ],
      "name": "registerAgent",
      "outputs": [
        {
          "internalType": "uint256",
          "name": "agentId",
          "type": "uint256"
        }
      ],
      "stateMutability": "nonpayable",
      "type": "function"
    },
    {
      "inputs": [],
      "name": "renounceOwnership",
      "outputs": [],
      "stateMutability": "view",
      "type": "function"
    },
    {
      "inputs": [],
      "name": "totalAgents",
      "outputs": [
        {
          "internalType": "uint256",
          "name": "",
          "type": "uint256"
        }
      ],
      "stateMutability": "view",
      "type": "function"
    },
    {
      "inputs": [
        {
          "internalType": "address",
          "name": "newOwner",
          "type": "address"
        }
      ],
      "name": "transferOwnership",
      "outputs": [],
      "stateMutability": "nonpayable",
      "type": "function"
    }
  ],
  "bytecode": "0x60c060405234801561000f575f5ffd5b50604051610ea5380380610ea583398101604081905261002e9161018b565b338061005457604051631e4fbdf760e01b81525f60048201526024015b60405180910390fd5b61005d81610121565b506001600160a01b0382166100b45760405162461bcd60e51b815260206004820152601560248201527f5a65726f20616464726573733a20657263383030340000000000000000000000604482015260640161004b565b6001600160a01b03811661010a5760405162461bcd60e51b815260206004820152601660248201527f5a65726f20616464726573733a20747265617375727900000000000000000000604482015260640161004b565b6001600160a01b039182166080521660a0526101bc565b5f80546001600160a01b038381166001600160a01b0319831681178455604051919092169283917f8be0079c531659141344cd1fd0a4f28419497f9722a3daafe3b4186f6b6457e09190a35050565b80516001600160a01b0381168114610186575f5ffd5b919050565b5f5f6040838503121561019c575f5ffd5b6101a583610170565b91506101b360208401610170565b90509250929050565b60805160a051610c9f6102065f395f818161029a01528181610692015261073201525f818160ee015281816102db01528181610413015281816105e601526106c40152610c9f5ff3fe608060405234801561000f575f5ffd5b50600436106100e5575f3560e01c80638e26819111610088578063c505371211610063578063c505371214610266578063d635ff121461026f578063dcf4c06d14610295578063f2fde38b146102bc575f5ffd5b80638e2681911461020a578063a68dd9c81461022b578063aaf4838514610253575f5ffd5b80631ab6f888116100c35780631ab6f888146101925780635a5d096c146101b2578063715018a6146101f05780638da5cb5b146101fa575f5ffd5b8063094d1f0d146100e9578063150b7a021461012d57806319a6a6e914610159575b5f5ffd5b6101107f000000000000000000000000000000000000000000000000000000000000000081565b6040516001600160a01b0390911681526020015b60405180910390f35b61014061013b36600461098c565b6102cf565b6040516001600160e01b03199091168152602001610124565b61016c6101673660046109fa565b61035f565b604080516001600160a01b03948516815293909216602084015290820152606001610124565b6101a56101a0366004610a11565b61048c565b6040516101249190610a33565b6101e06101c0366004610a75565b5f91825260026020526040909120546001600160a01b0391821691161490565b6040519015158152602001610124565b6101f86104f5565b005b5f546001600160a01b0316610110565b61021d610218366004610aa3565b610545565b604051908152602001610124565b6101106102393660046109fa565b5f908152600260205260409020546001600160a01b031690565b61021d610261366004610acd565b6105db565b61021d60015481565b6101e061027d3660046109fa565b5f908152600260208190526040909120015460ff1690565b6101107f000000000000000000000000000000000000000000000000000000000000000081565b6101f86102ca366004610a11565b610879565b5f336001600160a01b037f0000000000000000000000000000000000000000000000000000000000000000161461034d5760405162461bcd60e51b815260206004820152601f60248201527f4f6e6c792064657369676e61746564204552433830303420616c6c6f7765640060448201526064015b60405180910390fd5b50630a85bd0160e11b95945050505050565b5f8181526002602081905260408220015481908190849060ff166103b75760405162461bcd60e51b815260206004820152600f60248201526e1059d95b9d081b9bdd08199bdd5b99608a1b6044820152606401610344565b5f85815260026020818152604092839020835160608101855281546001600160a01b03908116808352600184015494830194909452919093015460ff1615158385015292516233950960e01b81526004810189905290965090917f000000000000000000000000000000000000000000000000000000000000000016906233950990602401602060405180830381865afa158015610457573d5f5f3e3d5ffd5b505050506040513d601f19601f8201168201806040525081019061047b9190610b41565b602090910151949690955092505050565b6001600160a01b0381165f908152600360209081526040918290208054835181840281018401909452808452606093928301828280156104e957602002820191905f5260205f20905b8154815260200190600101908083116104d5575b50505050509050919050565b6104fd6108b6565b60405162461bcd60e51b815260206004820152601f60248201527f4f776e6572736869702072656e6f756e63656d656e742064697361626c6564006044820152606401610344565b6001600160a01b0382165f9081526003602052604081205482106105a15760405162461bcd60e51b8152602060048201526013602482015272496e646578206f7574206f6620626f756e647360681b6044820152606401610344565b6001600160a01b0383165f9081526003602052604090208054839081106105ca576105ca610b5c565b905f5260205f200154905092915050565b5f6001600160a01b037f00000000000000000000000000000000000000000000000000000000000000001663f2c298be6106186060880188610b70565b6040518363ffffffff1660e01b8152600401610635929190610bdb565b6020604051808303815f875af1158015610651573d5f5f3e3d5ffd5b505050506040513d601f19601f820116820180604052508101906106759190610bf6565b604051632142170760e11b81523060048201526001600160a01b037f000000000000000000000000000000000000000000000000000000000000000081166024830152604482018390529192507f0000000000000000000000000000000000000000000000000000000000000000909116906342842e0e906064015f604051808303815f87803b158015610707575f5ffd5b505af1158015610719573d5f5f3e3d5ffd5b505060405163c50c5ac760e01b81526001600160a01b037f000000000000000000000000000000000000000000000000000000000000000016925063c50c5ac791506107719084903390899089908990600401610c0d565b5f604051808303815f87803b158015610788575f5ffd5b505af115801561079a573d5f5f3e3d5ffd5b5050604080516060810182523380825242602080840191825260018486018181525f8a81526002808552888220975188546001600160a01b0319166001600160a01b03909116178855945187840155905195909301805460ff19169515159590951790945591815260038083528482208054600485528684208a855285529583208690559083528484018155815290812090920185905580549350915061084083610c45565b9091555050604051339082907fba9d3be5149ecab5ff8e380633795e5d9153c2f0e1ec952dd1de4611d661c9f5905f90a3949350505050565b6108816108b6565b6001600160a01b0381166108aa57604051631e4fbdf760e01b81525f6004820152602401610344565b6108b3816108e4565b50565b5f546001600160a01b031633146108e25760405163118cdaa760e01b8152336004820152602401610344565b565b5f80546001600160a01b038381166001600160a01b0319831681178455604051919092169283917f8be0079c531659141344cd1fd0a4f28419497f9722a3daafe3b4186f6b6457e09190a35050565b6001600160a01b03811681146108b3575f5ffd5b5f5f83601f840112610957575f5ffd5b50813567ffffffffffffffff81111561096e575f5ffd5b602083019150836020828501011115610985575f5ffd5b9250929050565b5f5f5f5f5f608086880312156109a0575f5ffd5b85356109ab81610933565b945060208601356109bb81610933565b935060408601359250606086013567ffffffffffffffff8111156109dd575f5ffd5b6109e988828901610947565b969995985093965092949392505050565b5f60208284031215610a0a575f5ffd5b5035919050565b5f60208284031215610a21575f5ffd5b8135610a2c81610933565b9392505050565b602080825282518282018190525f918401906040840190835b81811015610a6a578351835260209384019390920191600101610a4c565b509095945050505050565b5f5f60408385031215610a86575f5ffd5b823591506020830135610a9881610933565b809150509250929050565b5f5f60408385031215610ab4575f5ffd5b8235610abf81610933565b946020939093013593505050565b5f5f5f5f60608587031215610ae0575f5ffd5b843567ffffffffffffffff811115610af6575f5ffd5b850160e08188031215610b07575f5ffd5b935060208501359250604085013567ffffffffffffffff811115610b29575f5ffd5b610b3587828801610947565b95989497509550505050565b5f60208284031215610b51575f5ffd5b8151610a2c81610933565b634e487b7160e01b5f52603260045260245ffd5b5f5f8335601e19843603018112610b85575f5ffd5b83018035915067ffffffffffffffff821115610b9f575f5ffd5b602001915036819003821315610985575f5ffd5b81835281816020850137505f828201602090810191909152601f909101601f19169091010190565b602081525f610bee602083018486610bb3565b949350505050565b5f60208284031215610c06575f5ffd5b5051919050565b85815260018060a01b0385166020820152836040820152608060608201525f610c3a608083018486610bb3565b979650505050505050565b5f60018201610c6257634e487b7160e01b5f52601160045260245ffd5b506001019056fea264697066735822122087bdcdbdc0df47bf52746e2296c5824b727d541d3da576ef2b35394695189f4564736f6c634300081e0033",
  "linkReferences": {},
  "deployedLinkReferences": {},
  "immutableReferences": {
    "212": [
      {
        "length": 32,
        "start": 238
      },
      {
        "length": 32,
        "start": 731
      },
      {
        "length": 32,
        "start": 1043
      },
      {
        "length": 32,
        "start": 1510
      },
      {
        "length": 32,
        "start": 1732
      }
    ],
    "216": [
      {
        "length": 32,
        "start": 666
      },
      {
        "length": 32,
        "start": 1682
      },
      {
        "length": 32,
        "start": 1842
      }
    ]
  },
  "inputSourceName": "project/contracts/AgentRegistry.sol",
  "buildInfoId": "solc-0_8_30-46e5ae45be2d735c5c441e6f6ea7063ce9f6b8a9"
}