{
  "_format": "hh3-artifact-1",
  "contractName": "AgentPass",
  "sourceName": "contracts/AgentPass.sol",
  "abi": [
    {
      "inputs": [
        {
          "internalType": "address",
          "name": "_registry",
          "type": "address"
        },
        {
          "internalType": "address",
          "name": "_relayer",
          "type": "address"
        },
        {
          "internalType": "string",
          "name": "_baseURI",
          "type": "string"
        }
      ],
      "stateMutability": "nonpayable",
      "type": "constructor"
    },
    {
      "inputs": [
        {
          "internalType": "address",
          "name": "sender",
          "type": "address"
        },
        {
          "internalType": "uint256",
          "name": "balance",
          "type": "uint256"
        },
        {
          "internalType": "uint256",
          "name": "needed",
          "type": "uint256"
        },
        {
          "internalType": "uint256",
          "name": "tokenId",
          "type": "uint256"
        }
      ],
      "name": "ERC1155InsufficientBalance",
      "type": "error"
    },
    {
      "inputs": [
        {
          "internalType": "address",
          "name": "approver",
          "type": "address"
        }
      ],
      "name": "ERC1155InvalidApprover",
      "type": "error"
    },
    {
      "inputs": [
        {
          "internalType": "uint256",
          "name": "idsLength",
          "type": "uint256"
        },
        {
          "internalType": "uint256",
          "name": "valuesLength",
          "type": "uint256"
        }
      ],
      "name": "ERC1155InvalidArrayLength",
      "type": "error"
    },
    {
      "inputs": [
        {
          "internalType": "address",
          "name": "operator",
          "type": "address"
        }
      ],
      "name": "ERC1155InvalidOperator",
      "type": "error"
    },
    {
      "inputs": [
        {
          "internalType": "address",
          "name": "receiver",
          "type": "address"
        }
      ],
      "name": "ERC1155InvalidReceiver",
      "type": "error"
    },
    {
      "inputs": [
        {
          "internalType": "address",
          "name": "sender",
          "type": "address"
        }
      ],
      "name": "ERC1155InvalidSender",
      "type": "error"
    },
    {
      "inputs": [
        {
          "internalType": "address",
          "name": "operator",
          "type": "address"
        },
        {
          "internalType": "address",
          "name": "owner",
          "type": "address"
        }
      ],
      "name": "ERC1155MissingApprovalForAll",
      "type": "error"
    },
    {
      "inputs": [
        {
          "internalType": "address",
          "name": "owner",
          "type": "address"
        }
      ],
      "name": "OwnableInvalidOwner",
      "type": "error"
    },
    {
      "inputs": [
        {
          "internalType": "address",
          "name": "account",
          "type": "address"
        }
      ],
      "name": "OwnableUnauthorizedAccount",
      "type": "error"
    },
    {
      "inputs": [
        {
          "internalType": "address",
          "name": "token",
          "type": "address"
        }
      ],
      "name": "SafeERC20FailedOperation",
      "type": "error"
    },
    {
      "anonymous": false,
      "inputs": [
        {
          "indexed": true,
          "internalType": "uint256",
          "name": "agentId",
          "type": "uint256"
        },
        {
          "indexed": false,
          "internalType": "bool",
          "name": "paused",
          "type": "bool"
        }
      ],
      "name": "AgentPaused",
      "type": "event"
    },
    {
      "anonymous": false,
      "inputs": [
        {
          "indexed": true,
          "internalType": "address",
          "name": "account",
          "type": "address"
        },
        {
          "indexed": true,
          "internalType": "address",
          "name": "operator",
          "type": "address"
        },
        {
          "indexed": false,
          "internalType": "bool",
          "name": "approved",
          "type": "bool"
        }
      ],
      "name": "ApprovalForAll",
      "type": "event"
    },
    {
      "anonymous": false,
      "inputs": [
        {
          "indexed": false,
          "internalType": "string",
          "name": "newURI",
          "type": "string"
        }
      ],
      "name": "BaseURIUpdated",
      "type": "event"
    },
    {
      "anonymous": false,
      "inputs": [
        {
          "indexed": true,
          "internalType": "uint256",
          "name": "agentId",
          "type": "uint256"
        },
        {
          "indexed": false,
          "internalType": "uint256",
          "name": "version",
          "type": "uint256"
        },
        {
          "components": [
            {
              "internalType": "address",
              "name": "tokenAddress",
              "type": "address"
            },
            {
              "internalType": "uint256",
              "name": "subscriptionFee",
              "type": "uint256"
            },
            {
              "internalType": "uint256",
              "name": "duration",
              "type": "uint256"
            },
            {
              "internalType": "uint256",
              "name": "maxRequests",
              "type": "uint256"
            },
            {
              "internalType": "uint256",
              "name": "burnBps",
              "type": "uint256"
            },
            {
              "internalType": "bool",
              "name": "paused",
              "type": "bool"
            }
          ],
          "indexed": false,
          "internalType": "struct AgentConfig",
          "name": "cfg",
          "type": "tuple"
        }
      ],
      "name": "ConfigUpdated",
      "type": "event"
    },
    {
      "anonymous": false,
      "inputs": [
        {
          "indexed": true,
          "internalType": "uint256",
          "name": "tokenId",
          "type": "uint256"
        }
      ],
      "name": "Locked",
      "type": "event"
    },
    {
      "anonymous": false,
      "inputs": [
        {
          "indexed": true,
          "internalType": "address",
          "name": "previousOwner",
          "type": "address"
        },
        {
          "indexed": true,
          "internalType": "address",
          "name": "newOwner",
          "type": "address"
        }
      ],
      "name": "OwnershipTransferred",
      "type": "event"
    },
    {
      "anonymous": false,
      "inputs": [
        {
          "indexed": true,
          "internalType": "address",
          "name": "user",
          "type": "address"
        },
        {
          "indexed": true,
          "internalType": "uint256",
          "name": "agentId",
          "type": "uint256"
        },
        {
          "indexed": false,
          "internalType": "string",
          "name": "reason",
          "type": "string"
        }
      ],
      "name": "PassExpired",
      "type": "event"
    },
    {
      "anonymous": false,
      "inputs": [
        {
          "indexed": true,
          "internalType": "address",
          "name": "user",
          "type": "address"
        },
        {
          "indexed": true,
          "internalType": "uint256",
          "name": "agentId",
          "type": "uint256"
        },
        {
          "indexed": false,
          "internalType": "uint256",
          "name": "expiresAt",
          "type": "uint256"
        },
        {
          "indexed": false,
          "internalType": "uint256",
          "name": "fee",
          "type": "uint256"
        }
      ],
      "name": "PassPurchased",
      "type": "event"
    },
    {
      "anonymous": false,
      "inputs": [
        {
          "indexed": true,
          "internalType": "address",
          "name": "relayer",
          "type": "address"
        },
        {
          "indexed": false,
          "internalType": "bool",
          "name": "status",
          "type": "bool"
        }
      ],
      "name": "RelayerUpdated",
      "type": "event"
    },
    {
      "anonymous": false,
      "inputs": [
        {
          "indexed": true,
          "internalType": "address",
          "name": "operator",
          "type": "address"
        },
        {
          "indexed": true,
          "internalType": "address",
          "name": "from",
          "type": "address"
        },
        {
          "indexed": true,
          "internalType": "address",
          "name": "to",
          "type": "address"
        },
        {
          "indexed": false,
          "internalType": "uint256[]",
          "name": "ids",
          "type": "uint256[]"
        },
        {
          "indexed": false,
          "internalType": "uint256[]",
          "name": "values",
          "type": "uint256[]"
        }
      ],
      "name": "TransferBatch",
      "type": "event"
    },
    {
      "anonymous": false,
      "inputs": [
        {
          "indexed": true,
          "internalType": "address",
          "name": "operator",
          "type": "address"
        },
        {
          "indexed": true,
          "internalType": "address",
          "name": "from",
          "type": "address"
        },
        {
          "indexed": true,
          "internalType": "address",
          "name": "to",
          "type": "address"
        },
        {
          "indexed": false,
          "internalType": "uint256",
          "name": "id",
          "type": "uint256"
        },
        {
          "indexed": false,
          "internalType": "uint256",
          "name": "value",
          "type": "uint256"
        }
      ],
      "name": "TransferSingle",
      "type": "event"
    },
    {
      "anonymous": false,
      "inputs": [
        {
          "indexed": false,
          "internalType": "string",
          "name": "value",
          "type": "string"
        },
        {
          "indexed": true,
          "internalType": "uint256",
          "name": "id",
          "type": "uint256"
        }
      ],
      "name": "URI",
      "type": "event"
    },
    {
      "inputs": [],
      "name": "MAX_DURATION",
      "outputs": [
        {
          "internalType": "uint256",
          "name": "",
          "type": "uint256"
        }
      ],
      "stateMutability": "view",
      "type": "function"
    },
    {
      "inputs": [],
      "name": "MIN_BURN_BPS",
      "outputs": [
        {
          "internalType": "uint256",
          "name": "",
          "type": "uint256"
        }
      ],
      "stateMutability": "view",
      "type": "function"
    },
    {
      "inputs": [],
      "name": "MIN_DURATION",
      "outputs": [
        {
          "internalType": "uint256",
          "name": "",
          "type": "uint256"
        }
      ],
      "stateMutability": "view",
      "type": "function"
    },
    {
      "inputs": [
        {
          "internalType": "address",
          "name": "account",
          "type": "address"
        },
        {
          "internalType": "uint256",
          "name": "id",
          "type": "uint256"
        }
      ],
      "name": "balanceOf",
      "outputs": [
        {
          "internalType": "uint256",
          "name": "",
          "type": "uint256"
        }
      ],
      "stateMutability": "view",
      "type": "function"
    },
    {
      "inputs": [
        {
          "internalType": "address[]",
          "name": "accounts",
          "type": "address[]"
        },
        {
          "internalType": "uint256[]",
          "name": "ids",
          "type": "uint256[]"
        }
      ],
      "name": "balanceOfBatch",
      "outputs": [
        {
          "internalType": "uint256[]",
          "name": "",
          "type": "uint256[]"
        }
      ],
      "stateMutability": "view",
      "type": "function"
    },
    {
      "inputs": [],
      "name": "baseURI",
      "outputs": [
        {
          "internalType": "string",
          "name": "",
          "type": "string"
        }
      ],
      "stateMutability": "view",
      "type": "function"
    },
    {
      "inputs": [
        {
          "internalType": "uint256",
          "name": "",
          "type": "uint256"
        }
      ],
      "name": "currentVersion",
      "outputs": [
        {
          "internalType": "uint256",
          "name": "",
          "type": "uint256"
        }
      ],
      "stateMutability": "view",
      "type": "function"
    },
    {
      "inputs": [
        {
          "internalType": "address",
          "name": "user",
          "type": "address"
        }
      ],
      "name": "getActivePasses",
      "outputs": [
        {
          "internalType": "uint256[]",
          "name": "",
          "type": "uint256[]"
        }
      ],
      "stateMutability": "view",
      "type": "function"
    },
    {
      "inputs": [
        {
          "internalType": "uint256",
          "name": "agentId",
          "type": "uint256"
        },
        {
          "internalType": "uint256",
          "name": "version",
          "type": "uint256"
        }
      ],
      "name": "getConfig",
      "outputs": [
        {
          "components": [
            {
              "internalType": "address",
              "name": "tokenAddress",
              "type": "address"
            },
            {
              "internalType": "uint256",
              "name": "subscriptionFee",
              "type": "uint256"
            },
            {
              "internalType": "uint256",
              "name": "duration",
              "type": "uint256"
            },
            {
              "internalType": "uint256",
              "name": "maxRequests",
              "type": "uint256"
            },
            {
              "internalType": "uint256",
              "name": "burnBps",
              "type": "uint256"
            },
            {
              "internalType": "bool",
              "name": "paused",
              "type": "bool"
            }
          ],
          "internalType": "struct AgentConfig",
          "name": "",
          "type": "tuple"
        }
      ],
      "stateMutability": "view",
      "type": "function"
    },
    {
      "inputs": [
        {
          "internalType": "uint256",
          "name": "agentId",
          "type": "uint256"
        }
      ],
      "name": "getCurrentConfig",
      "outputs": [
        {
          "components": [
            {
              "internalType": "address",
              "name": "tokenAddress",
              "type": "address"
            },
            {
              "internalType": "uint256",
              "name": "subscriptionFee",
              "type": "uint256"
            },
            {
              "internalType": "uint256",
              "name": "duration",
              "type": "uint256"
            },
            {
              "internalType": "uint256",
              "name": "maxRequests",
              "type": "uint256"
            },
            {
              "internalType": "uint256",
              "name": "burnBps",
              "type": "uint256"
            },
            {
              "internalType": "bool",
              "name": "paused",
              "type": "bool"
            }
          ],
          "internalType": "struct AgentConfig",
          "name": "",
          "type": "tuple"
        }
      ],
      "stateMutability": "view",
      "type": "function"
    },
    {
      "inputs": [
        {
          "internalType": "address",
          "name": "user",
          "type": "address"
        },
        {
          "internalType": "uint256",
          "name": "agentId",
          "type": "uint256"
        }
      ],
      "name": "getPassStatus",
      "outputs": [
        {
          "internalType": "bool",
          "name": "active",
          "type": "bool"
        },
        {
          "internalType": "uint256",
          "name": "expiresAt",
          "type": "uint256"
        },
        {
          "internalType": "uint256",
          "name": "timeLeft",
          "type": "uint256"
        },
        {
          "internalType": "uint256",
          "name": "requestsUsed",
          "type": "uint256"
        },
        {
          "internalType": "uint256",
          "name": "maxRequests",
          "type": "uint256"
        },
        {
          "internalType": "uint256",
          "name": "configVersion",
          "type": "uint256"
        }
      ],
      "stateMutability": "view",
      "type": "function"
    },
    {
      "inputs": [
        {
          "internalType": "address",
          "name": "user",
          "type": "address"
        }
      ],
      "name": "getUserPasses",
      "outputs": [
        {
          "internalType": "uint256[]",
          "name": "",
          "type": "uint256[]"
        }
      ],
      "stateMutability": "view",
      "type": "function"
    },
    {
      "inputs": [
        {
          "internalType": "address",
          "name": "user",
          "type": "address"
        },
        {
          "internalType": "uint256",
          "name": "agentId",
          "type": "uint256"
        }
      ],
      "name": "hasAccess",
      "outputs": [
        {
          "internalType": "bool",
          "name": "",
          "type": "bool"
        }
      ],
      "stateMutability": "view",
      "type": "function"
    },
    {
      "inputs": [
        {
          "internalType": "address",
          "name": "account",
          "type": "address"
        },
        {
          "internalType": "address",
          "name": "operator",
          "type": "address"
        }
      ],
      "name": "isApprovedForAll",
      "outputs": [
        {
          "internalType": "bool",
          "name": "",
          "type": "bool"
        }
      ],
      "stateMutability": "view",
      "type": "function"
    },
    {
      "inputs": [
        {
          "internalType": "address",
          "name": "",
          "type": "address"
        }
      ],
      "name": "isRelayer",
      "outputs": [
        {
          "internalType": "bool",
          "name": "",
          "type": "bool"
        }
      ],
      "stateMutability": "view",
      "type": "function"
    },
    {
      "inputs": [],
      "name": "owner",
      "outputs": [
        {
          "internalType": "address",
          "name": "",
          "type": "address"
        }
      ],
      "stateMutability": "view",
      "type": "function"
    },
    {
      "inputs": [
        {
          "internalType": "uint256",
          "name": "agentId",
          "type": "uint256"
        }
      ],
      "name": "purchasePass",
      "outputs": [],
      "stateMutability": "nonpayable",
      "type": "function"
    },
    {
      "inputs": [
        {
          "internalType": "uint256",
          "name": "agentId",
          "type": "uint256"
        },
        {
          "internalType": "address",
          "name": "user",
          "type": "address"
        },
        {
          "internalType": "uint256",
          "name": "count",
          "type": "uint256"
        }
      ],
      "name": "recordUsage",
      "outputs": [],
      "stateMutability": "nonpayable",
      "type": "function"
    },
    {
      "inputs": [],
      "name": "registry",
      "outputs": [
        {
          "internalType": "contract IAgentRegistry",
          "name": "",
          "type": "address"
        }
      ],
      "stateMutability": "view",
      "type": "function"
    },
    {
      "inputs": [],
      "name": "renounceOwnership",
      "outputs": [],
      "stateMutability": "view",
      "type": "function"
    },
    {
      "inputs": [
        {
          "internalType": "address",
          "name": "from",
          "type": "address"
        },
        {
          "internalType": "address",
          "name": "to",
          "type": "address"
        },
        {
          "internalType": "uint256[]",
          "name": "ids",
          "type": "uint256[]"
        },
        {
          "internalType": "uint256[]",
          "name": "values",
          "type": "uint256[]"
        },
        {
          "internalType": "bytes",
          "name": "data",
          "type": "bytes"
        }
      ],
      "name": "safeBatchTransferFrom",
      "outputs": [],
      "stateMutability": "nonpayable",
      "type": "function"
    },
    {
      "inputs": [
        {
          "internalType": "address",
          "name": "from",
          "type": "address"
        },
        {
          "internalType": "address",
          "name": "to",
          "type": "address"
        },
        {
          "internalType": "uint256",
          "name": "id",
          "type": "uint256"
        },
        {
          "internalType": "uint256",
          "name": "value",
          "type": "uint256"
        },
        {
          "internalType": "bytes",
          "name": "data",
          "type": "bytes"
        }
      ],
      "name": "safeTransferFrom",
      "outputs": [],
      "stateMutability": "nonpayable",
      "type": "function"
    },
    {
      "inputs": [
        {
          "internalType": "address",
          "name": "operator",
          "type": "address"
        },
        {
          "internalType": "bool",
          "name": "approved",
          "type": "bool"
        }
      ],
      "name": "setApprovalForAll",
      "outputs": [],
      "stateMutability": "nonpayable",
      "type": "function"
    },
    {
      "inputs": [
        {
          "internalType": "string",
          "name": "_baseURI",
          "type": "string"
        }
      ],
      "name": "setBaseURI",
      "outputs": [],
      "stateMutability": "nonpayable",
      "type": "function"
    },
    {
      "inputs": [
        {
          "internalType": "uint256",
          "name": "agentId",
          "type": "uint256"
        },
        {
          "components": [
            {
              "internalType": "address",
              "name": "tokenAddress",
              "type": "address"
            },
            {
              "internalType": "uint256",
              "name": "subscriptionFee",
              "type": "uint256"
            },
            {
              "internalType": "uint256",
              "name": "duration",
              "type": "uint256"
            },
            {
              "internalType": "uint256",
              "name": "maxRequests",
              "type": "uint256"
            },
            {
              "internalType": "uint256",
              "name": "burnBps",
              "type": "uint256"
            },
            {
              "internalType": "bool",
              "name": "paused",
              "type": "bool"
            }
          ],
          "internalType": "struct AgentConfig",
          "name": "cfg",
          "type": "tuple"
        }
      ],
      "name": "setConfig",
      "outputs": [],
      "stateMutability": "nonpayable",
      "type": "function"
    },
    {
      "inputs": [
        {
          "internalType": "uint256",
          "name": "agentId",
          "type": "uint256"
        },
        {
          "internalType": "bool",
          "name": "paused",
          "type": "bool"
        }
      ],
      "name": "setPaused",
      "outputs": [],
      "stateMutability": "nonpayable",
      "type": "function"
    },
    {
      "inputs": [
        {
          "internalType": "address",
          "name": "relayer",
          "type": "address"
        },
        {
          "internalType": "bool",
          "name": "status",
          "type": "bool"
        }
      ],
      "name": "setRelayer",
      "outputs": [],
      "stateMutability": "nonpayable",
      "type": "function"
    },
    {
      "inputs": [
        {
          "internalType": "bytes4",
          "name": "interfaceId",
          "type": "bytes4"
        }
      ],
      "name": "supportsInterface",
      "outputs": [
        {
          "internalType": "bool",
          "name": "",
          "type": "bool"
        }
      ],
      "stateMutability": "view",
      "type": "function"
    },
    {
      "inputs": [
        {
          "internalType": "address",
          "name": "newOwner",
          "type": "address"
        }
      ],
      "name": "transferOwnership",
      "outputs": [],
      "stateMutability": "nonpayable",
      "type": "function"
    },
    {
      "inputs": [
        {
          "internalType": "uint256",
          "name": "tokenId",
          "type": "uint256"
        }
      ],
      "name": "uri",
      "outputs": [
        {
          "internalType": "string",
          "name": "",
          "type": "string"
        }
      ],
      "stateMutability": "view",
      "type": "function"
    }
  ],
  "bytecode": "0x60a060405234801561000f575f5ffd5b5060405161302d38038061302d83398101604081905261002e916101ba565b60408051602081019091525f815233906100478161012a565b506001600160a01b03811661007657604051631e4fbdf760e01b81525f60048201526024015b60405180910390fd5b61007f8161013a565b506001600160a01b0383166100d65760405162461bcd60e51b815260206004820152601660248201527f5a65726f20616464726573733a20726567697374727900000000000000000000604482015260640161006d565b6001600160a01b03831660805260046100ef828261030f565b506001600160a01b03821615610122576001600160a01b0382165f908152600560205260409020805460ff191660011790555b5050506103c9565b6002610136828261030f565b5050565b600380546001600160a01b038381166001600160a01b0319831681179093556040519116919082907f8be0079c531659141344cd1fd0a4f28419497f9722a3daafe3b4186f6b6457e0905f90a35050565b80516001600160a01b03811681146101a1575f5ffd5b919050565b634e487b7160e01b5f52604160045260245ffd5b5f5f5f606084860312156101cc575f5ffd5b6101d58461018b565b92506101e36020850161018b565b60408501519092506001600160401b038111156101fe575f5ffd5b8401601f8101861361020e575f5ffd5b80516001600160401b03811115610227576102276101a6565b604051601f8201601f19908116603f011681016001600160401b0381118282101715610255576102556101a6565b60405281815282820160200188101561026c575f5ffd5b8160208401602083015e5f602083830101528093505050509250925092565b600181811c9082168061029f57607f821691505b6020821081036102bd57634e487b7160e01b5f52602260045260245ffd5b50919050565b601f82111561030a57805f5260205f20601f840160051c810160208510156102e85750805b601f840160051c820191505b81811015610307575f81556001016102f4565b50505b505050565b81516001600160401b03811115610328576103286101a6565b61033c81610336845461028b565b846102c3565b6020601f82116001811461036e575f83156103575750848201515b5f19600385901b1c1916600184901b178455610307565b5f84815260208120601f198516915b8281101561039d578785015182556020948501946001909201910161037d565b50848210156103ba57868401515f19600387901b60f8161c191681555b50505050600190811b01905550565b608051612c376103f65f395f81816103bb0152818161075f01528181610b9a015261147a0152612c375ff3fe608060405234801561000f575f5ffd5b50600436106101d0575f3560e01c80637b103999116100fe578063bc38d48c1161009e578063e985e9c51161006e578063e985e9c514610496578063ecd8dc3a146104d1578063f242432a146104e4578063f2fde38b146104f7575f5ffd5b8063bc38d48c14610454578063c6530e4114610467578063d5570bfd1461047a578063daff97b514610483575f5ffd5b80638da5cb5b116100d95780638da5cb5b1461041b578063a22cb4651461042c578063b1724b461461043f578063b6a6d1771461044a575f5ffd5b80637b103999146103b6578063836d1f76146103f55780638adc8b3b14610408575f5ffd5b80634621a95a1161017457806355f804b31161014457806355f804b31461032e5780636c0360eb14610341578063715018a614610349578063729c989514610351575f5ffd5b80634621a95a146102ba5780634bf607f8146102cd5780634e1273f4146102ec578063541d55481461030c575f5ffd5b806314462eda116101af57806314462eda1461023d57806321f864a5146102525780632eb2c2d6146102655780633931c90614610278575f5ffd5b8062fdd58e146101d457806301ffc9a7146101fa5780630e89341c1461021d575b5f5ffd5b6101e76101e23660046121d7565b61050a565b6040519081526020015b60405180910390f35b61020d610208366004612216565b610531565b60405190151581526020016101f1565b61023061022b366004612238565b61053b565b6040516101f1919061227d565b61025061024b366004612238565b61056f565b005b61025061026036600461228f565b610962565b6102506102733660046123f5565b610ab8565b61028b6102863660046121d7565b610ad7565b6040805196151587526020870195909552938501929092526060840152608083015260a082015260c0016101f1565b6102506102c83660046124a5565b610b7c565b6101e76102db366004612238565b60096020525f908152604090205481565b6102ff6102fa3660046124da565b610e69565b6040516101f191906125d7565b61020d61031a3660046125e9565b60056020525f908152604090205460ff1681565b61025061033c366004612604565b610f33565b610230610f86565b610250611012565b61036461035f366004612238565b611062565b6040516101f1919081516001600160a01b031681526020808301519082015260408083015190820152606080830151908201526080808301519082015260a09182015115159181019190915260c00190565b6103dd7f000000000000000000000000000000000000000000000000000000000000000081565b6040516001600160a01b0390911681526020016101f1565b610364610403366004612670565b6110df565b6102ff6104163660046125e9565b611154565b6003546001600160a01b03166103dd565b61025061043a36600461269d565b611317565b6101e76301e1338081565b6101e76201518081565b6102ff6104623660046125e9565b611326565b61020d6104753660046121d7565b61138f565b6101e76103e881565b6102506104913660046126d4565b61145c565b61020d6104a43660046126f7565b6001600160a01b039182165f90815260016020908152604080832093909416825291909152205460ff1690565b6102506104df36600461269d565b6115d5565b6102506104f2366004612723565b611680565b6102506105053660046125e9565b611696565b5f818152602081815260408083206001600160a01b03861684529091529020545b92915050565b5f61052b826116d3565b6060600461054883611722565b6040516020016105599291906127b2565b6040516020818303038152906040529050919050565b5f81815260096020526040902054806105c65760405162461bcd60e51b81526020600482015260146024820152731059d95b9d081b9bdd0818dbdb999a59dd5c995960621b60448201526064015b60405180910390fd5b5f828152600a60209081526040808320848452825291829020825160c08101845281546001600160a01b03168152600182015492810192909252600281015492820192909252600382015460608201526004820154608082015260059091015460ff1615801560a083015261066c5760405162461bcd60e51b815260206004820152600c60248201526b1059d95b9d081c185d5cd95960a21b60448201526064016105bd565b5f8160200151116106b45760405162461bcd60e51b8152602060048201526012602482015271496e76616c69642066656520636f6e66696760701b60448201526064016105bd565b5f6106bf338561050a565b11156106ff576106d1338460016117b1565b5f83815260066020908152604080832033845290915281208181556001810182905560028101829055600301555b602081015160808201515f90612710906107199084612846565b610723919061285d565b90505f610730828461287c565b845190915081156107da576040516314d1bb3960e31b8152600481018890526107da9033906001600160a01b037f0000000000000000000000000000000000000000000000000000000000000000169063a68dd9c890602401602060405180830381865afa1580156107a4573d5f5f3e3d5ffd5b505050506040513d601f19601f820116820180604052508101906107c8919061288f565b6001600160a01b038416919085611818565b82156107f7576107f76001600160a01b0382163361dead86611818565b6108123388600160405180602001604052805f81525061184e565b604051806080016040528086604001514261082d91906128aa565b81526060808801516020808401919091525f60408085018290529383018b90528b8152600682528381203382528252838120855181558583015160018201558585015160028201559490920151600390940193909355600883528181208a825290925290205460ff166108dc57335f818152600760209081526040808320805460018181018355918552838520018c9055938352600882528083208b84529091529020805460ff191690911790555b60405187907f032bc66be43dbccb7487781d168eb7bda224628a3b2c3388bdf69b532a3a1611905f90a286336001600160a01b03167fbf5b10046d2330af4284944342e5265071d3a2a1e507eb2b4c648a145404820a87604001514261094291906128aa565b60408051918252602082018990520160405180910390a350505050505050565b335f9081526005602052604090205460ff166109ae5760405162461bcd60e51b815260206004820152600b60248201526a2737ba103932b630bcb2b960a91b60448201526064016105bd565b5f6109b9838561050a565b116109f75760405162461bcd60e51b815260206004820152600e60248201526d4e6f20616374697665207061737360901b60448201526064016105bd565b5f8381526006602090815260408083206001600160a01b0386168452909152812060028101805491928492610a2d9084906128aa565b90915550506001810154600282015410610ab2578060010154816002018190555083836001600160a01b03167fd5174c95620d551a92879835ef82ba7c7a1daca4f7cfb8c8c16f05c05b42e4ad604051610aa9906020808252600e908201526d1c995c5d595cdd1cd7db1a5b5a5d60921b604082015260600190565b60405180910390a35b50505050565b610ac3335b866118b2565b610ad0858585858561192a565b5050505050565b5f8181526006602090815260408083206001600160a01b0386168452825280832081516080810183528154815260018201549381019390935260028101549183019190915260030154606082015281908190819081908190610b39898961138f565b81519097509550428611610b4d575f610b5a565b8051610b5a90429061287c565b9450806040015193508060200151925080606001519150509295509295509295565b604051631697425b60e21b81526004810183905233602482015282907f00000000000000000000000000000000000000000000000000000000000000006001600160a01b031690635a5d096c90604401602060405180830381865afa158015610be7573d5f5f3e3d5ffd5b505050506040513d601f19601f82011682018060405250810190610c0b91906128bd565b610c495760405162461bcd60e51b815260206004820152600f60248201526e2737ba1030b3b2b73a1037bbb732b960891b60448201526064016105bd565b5f610c5760208401846125e9565b6001600160a01b031603610c9d5760405162461bcd60e51b815260206004820152600d60248201526c24b73b30b634b2103a37b5b2b760991b60448201526064016105bd565b5f826020013511610cdf5760405162461bcd60e51b815260206004820152600c60248201526b119959481c995c5d5a5c995960a21b60448201526064016105bd565b5f826060013511610d265760405162461bcd60e51b815260206004820152601160248201527014995c5d595cdd1cc81c995c5d5a5c9959607a1b60448201526064016105bd565b62015180826040013510158015610d4557506301e13380826040013511155b610d845760405162461bcd60e51b815260206004820152601060248201526f24b73b30b634b210323ab930ba34b7b760811b60448201526064016105bd565b6103e8826080013510158015610da05750612710826080013511155b610de05760405162461bcd60e51b81526020600482015260116024820152706275726e4270733a203130252d3130302560781b60448201526064016105bd565b5f83815260096020526040812080548290610dfa906128d8565b91829055505f858152600a6020908152604080832084845290915290209091508390610e2682826128f0565b905050837fa2459f11c83c983761f9853a1443b18109549c31a3294b46f7d4b9c5da6d5ce78285604051610e5b92919061296d565b60405180910390a250505050565b60608151835114610e9a5781518351604051635b05999160e01b8152600481019290925260248201526044016105bd565b5f83516001600160401b03811115610eb457610eb46122c4565b604051908082528060200260200182016040528015610edd578160200160208202803683370190505b5090505f5b8451811015610f2b57602080820286010151610f069060208084028701015161050a565b828281518110610f1857610f186129dd565b6020908102919091010152600101610ee2565b509392505050565b610f3b61198a565b6004610f48828483612a3a565b507f6741b2fc379fad678116fe3d4d4b9a1a184ab53ba36b86ad0fa66340b1ab41ad8282604051610f7a929190612af3565b60405180910390a15050565b60048054610f939061277a565b80601f0160208091040260200160405190810160405280929190818152602001828054610fbf9061277a565b801561100a5780601f10610fe15761010080835404028352916020019161100a565b820191905f5260205f20905b815481529060010190602001808311610fed57829003601f168201915b505050505081565b61101a61198a565b60405162461bcd60e51b815260206004820152601f60248201527f4f776e6572736869702072656e6f756e63656d656e742064697361626c65640060448201526064016105bd565b61106a612188565b505f908152600a6020908152604080832060098352818420548452825291829020825160c08101845281546001600160a01b03168152600182015492810192909252600281015492820192909252600382015460608201526004820154608082015260059091015460ff16151560a082015290565b6110e7612188565b505f918252600a6020908152604080842092845291815291819020815160c08101835281546001600160a01b0316815260018201549381019390935260028101549183019190915260038101546060830152600481015460808301526005015460ff16151560a082015290565b6001600160a01b0381165f9081526007602090815260408083208054825181850281018501909352808352606094938301828280156111b057602002820191905f5260205f20905b81548152602001906001019080831161119c575b505050505090505f81516001600160401b038111156111d1576111d16122c4565b6040519080825280602002602001820160405280156111fa578160200160208202803683370190505b5090505f805b835181101561127e5761122c8685838151811061121f5761121f6129dd565b602002602001015161138f565b1561127657838181518110611243576112436129dd565b6020026020010151838380611257906128d8565b945081518110611269576112696129dd565b6020026020010181815250505b600101611200565b505f816001600160401b03811115611298576112986122c4565b6040519080825280602002602001820160405280156112c1578160200160208202803683370190505b5090505f5b8281101561130d578381815181106112e0576112e06129dd565b60200260200101518282815181106112fa576112fa6129dd565b60209081029190910101526001016112c6565b5095945050505050565b6113223383836119b9565b5050565b6001600160a01b0381165f9081526007602090815260409182902080548351818402810184019094528084526060939283018282801561138357602002820191905f5260205f20905b81548152602001906001019080831161136f575b50505050509050919050565b5f8181526009602052604081205480158015906113c757505f838152600a6020908152604080832084845290915290206005015460ff165b156113d5575f91505061052b565b6113df848461050a565b5f036113ee575f91505061052b565b5f8381526006602090815260408083206001600160a01b03881684528252918290208251608081018452815480825260018301549382019390935260028201549381019390935260030154606083015242108015611453575080602001518160400151105b95945050505050565b604051631697425b60e21b81526004810183905233602482015282907f00000000000000000000000000000000000000000000000000000000000000006001600160a01b031690635a5d096c90604401602060405180830381865afa1580156114c7573d5f5f3e3d5ffd5b505050506040513d601f19601f820116820180604052508101906114eb91906128bd565b6115295760405162461bcd60e51b815260206004820152600f60248201526e2737ba1030b3b2b73a1037bbb732b960891b60448201526064016105bd565b5f838152600960205260409020548061157b5760405162461bcd60e51b81526020600482015260146024820152731059d95b9d081b9bdd0818dbdb999a59dd5c995960621b60448201526064016105bd565b5f848152600a60209081526040808320848452825291829020600501805460ff1916861515908117909155915191825285917f739ba9ffe2dc587fac94230dfc7df8673d88056fb087bd7f54fe1fcc201aa5f99101610e5b565b6115dd61198a565b6001600160a01b0382166116225760405162461bcd60e51b815260206004820152600c60248201526b5a65726f206164647265737360a01b60448201526064016105bd565b6001600160a01b0382165f81815260056020908152604091829020805460ff191685151590811790915591519182527f4b36b2e66f38ed349bec532105790177f1283bcbc094e6cd48565195d3033c43910160405180910390a25050565b61168933610abd565b610ad08585858585611a76565b61169e61198a565b6001600160a01b0381166116c757604051631e4fbdf760e01b81525f60048201526024016105bd565b6116d081611b03565b50565b5f6001600160e01b03198216636cdb3d1360e11b148061170357506001600160e01b031982166303a24d0760e21b145b8061052b57506301ffc9a760e01b6001600160e01b031983161461052b565b60605f61172e83611b54565b60010190505f816001600160401b0381111561174c5761174c6122c4565b6040519080825280601f01601f191660200182016040528015611776576020820181803683370190505b5090508181016020015b5f19016f181899199a1a9b1b9c1cb0b131b232b360811b600a86061a8153600a850494508461178057509392505050565b6001600160a01b0383166117d957604051626a0d4560e21b81525f60048201526024016105bd565b604080516001808252602082018590528183019081526060820184905260a082019092525f60808201818152919291610ad09187918590859083611c2b565b611826848484846001611c83565b610ab257604051635274afe760e01b81526001600160a01b03851660048201526024016105bd565b6001600160a01b03841661187757604051632bfa23e760e11b81525f60048201526024016105bd565b604080516001808252602082018690528183019081526060820185905260808201909252906118aa5f8784848784611c2b565b505050505050565b816001600160a01b0316816001600160a01b0316141580156118f957506001600160a01b038082165f9081526001602090815260408083209386168352929052205460ff16155b156113225760405163711bec9160e11b81526001600160a01b038084166004830152821660248201526044016105bd565b6001600160a01b03841661195357604051632bfa23e760e11b81525f60048201526024016105bd565b6001600160a01b03851661197b57604051626a0d4560e21b81525f60048201526024016105bd565b610ad085858585856001611c2b565b6003546001600160a01b031633146119b75760405163118cdaa760e01b81523360048201526024016105bd565b565b6001600160a01b0383166119e257604051631f18c42760e11b81525f60048201526024016105bd565b6001600160a01b038216611a0a5760405162ced3e160e81b81525f60048201526024016105bd565b6001600160a01b038381165f81815260016020908152604080832094871680845294825291829020805460ff191686151590811790915591519182527f17307eab39ab6107e8899845ad3d59bd9653f200f220920489ca2b5937696c31910160405180910390a3505050565b6001600160a01b038416611a9f57604051632bfa23e760e11b81525f60048201526024016105bd565b6001600160a01b038516611ac757604051626a0d4560e21b81525f60048201526024016105bd565b60408051600180825260208201869052818301908152606082018590526080820190925290611afa87878484875f611c2b565b50505050505050565b600380546001600160a01b038381166001600160a01b0319831681179093556040519116919082907f8be0079c531659141344cd1fd0a4f28419497f9722a3daafe3b4186f6b6457e0905f90a35050565b5f8072184f03e93ff9f4daa797ed6e38ed64bf6a1f0160401b8310611b925772184f03e93ff9f4daa797ed6e38ed64bf6a1f0160401b830492506040015b6d04ee2d6d415b85acef81000000008310611bbe576d04ee2d6d415b85acef8100000000830492506020015b662386f26fc100008310611bdc57662386f26fc10000830492506010015b6305f5e1008310611bf4576305f5e100830492506008015b6127108310611c0857612710830492506004015b60648310611c1a576064830492506002015b600a831061052b5760010192915050565b611c3786868686611cf0565b6001600160a01b038516156118aa57338115611c6057611c5b818888888888611d71565b611afa565b60208581015190850151611c78838a8a85858a611e92565b505050505050505050565b6040516323b872dd60e01b5f8181526001600160a01b038781166004528616602452604485905291602083606481808c5af1925060015f51148316611cdf578383151615611cd3573d5f823e3d81fd5b5f883b113d1516831692505b604052505f60605295945050505050565b6001600160a01b0384161580611d0d57506001600160a01b038316155b611d655760405162461bcd60e51b815260206004820152602360248201527f536f756c626f756e643a2050617373206973206e6f6e2d7472616e7366657261604482015262626c6560e81b60648201526084016105bd565b610ab284848484611f79565b6001600160a01b0384163b156118aa5760405163bc197c8160e01b81526001600160a01b0385169063bc197c8190611db59089908990889088908890600401612b21565b6020604051808303815f875af1925050508015611def575060408051601f3d908101601f19168201909252611dec91810190612b7e565b60015b611e56573d808015611e1c576040519150601f19603f3d011682016040523d82523d5f602084013e611e21565b606091505b5080515f03611e4e57604051632bfa23e760e11b81526001600160a01b03861660048201526024016105bd565b805160208201fd5b6001600160e01b0319811663bc197c8160e01b14611afa57604051632bfa23e760e11b81526001600160a01b03861660048201526024016105bd565b6001600160a01b0384163b156118aa5760405163f23a6e6160e01b81526001600160a01b0385169063f23a6e6190611ed69089908990889088908890600401612b99565b6020604051808303815f875af1925050508015611f10575060408051601f3d908101601f19168201909252611f0d91810190612b7e565b60015b611f3d573d808015611e1c576040519150601f19603f3d011682016040523d82523d5f602084013e611e21565b6001600160e01b0319811663f23a6e6160e01b14611afa57604051632bfa23e760e11b81526001600160a01b03861660048201526024016105bd565b8051825114611fa85781518151604051635b05999160e01b8152600481019290925260248201526044016105bd565b335f5b83518110156120aa576020818102858101820151908501909101516001600160a01b0388161561205c575f828152602081815260408083206001600160a01b038c16845290915290205481811015612036576040516303dee4c560e01b81526001600160a01b038a1660048201526024810182905260448101839052606481018490526084016105bd565b5f838152602081815260408083206001600160a01b038d16845290915290209082900390555b6001600160a01b038716156120a0575f828152602081815260408083206001600160a01b038b1684529091528120805483929061209a9084906128aa565b90915550505b5050600101611fab565b50825160010361212a5760208301515f906020840151909150856001600160a01b0316876001600160a01b0316846001600160a01b03167fc3d58168c5ae7397731d063d5bbf3d657854427343f4c083240f7aacaa2d0f62858560405161211b929190918252602082015260400190565b60405180910390a45050610ad0565b836001600160a01b0316856001600160a01b0316826001600160a01b03167f4a39dc06d4c0dbc64b70af90fd698a233a518aa5d07e595d983b8c0526c8f7fb8686604051612179929190612bdd565b60405180910390a45050505050565b6040518060c001604052805f6001600160a01b031681526020015f81526020015f81526020015f81526020015f81526020015f151581525090565b6001600160a01b03811681146116d0575f5ffd5b5f5f604083850312156121e8575f5ffd5b82356121f3816121c3565b946020939093013593505050565b6001600160e01b0319811681146116d0575f5ffd5b5f60208284031215612226575f5ffd5b813561223181612201565b9392505050565b5f60208284031215612248575f5ffd5b5035919050565b5f81518084528060208401602086015e5f602082860101526020601f19601f83011685010191505092915050565b602081525f612231602083018461224f565b5f5f5f606084860312156122a1575f5ffd5b8335925060208401356122b3816121c3565b929592945050506040919091013590565b634e487b7160e01b5f52604160045260245ffd5b604051601f8201601f191681016001600160401b0381118282101715612300576123006122c4565b604052919050565b5f6001600160401b03821115612320576123206122c4565b5060051b60200190565b5f82601f830112612339575f5ffd5b813561234c61234782612308565b6122d8565b8082825260208201915060208360051b86010192508583111561236d575f5ffd5b602085015b8381101561130d578035835260209283019201612372565b5f82601f830112612399575f5ffd5b81356001600160401b038111156123b2576123b26122c4565b6123c5601f8201601f19166020016122d8565b8181528460208386010111156123d9575f5ffd5b816020850160208301375f918101602001919091529392505050565b5f5f5f5f5f60a08688031215612409575f5ffd5b8535612414816121c3565b94506020860135612424816121c3565b935060408601356001600160401b0381111561243e575f5ffd5b61244a8882890161232a565b93505060608601356001600160401b03811115612465575f5ffd5b6124718882890161232a565b92505060808601356001600160401b0381111561248c575f5ffd5b6124988882890161238a565b9150509295509295909350565b5f5f82840360e08112156124b7575f5ffd5b8335925060c0601f19820112156124cc575f5ffd5b506020830190509250929050565b5f5f604083850312156124eb575f5ffd5b82356001600160401b03811115612500575f5ffd5b8301601f81018513612510575f5ffd5b803561251e61234782612308565b8082825260208201915060208360051b85010192508783111561253f575f5ffd5b6020840193505b8284101561256a578335612559816121c3565b825260209384019390910190612546565b945050505060208301356001600160401b03811115612587575f5ffd5b6125938582860161232a565b9150509250929050565b5f8151808452602084019350602083015f5b828110156125cd5781518652602095860195909101906001016125af565b5093949350505050565b602081525f612231602083018461259d565b5f602082840312156125f9575f5ffd5b8135612231816121c3565b5f5f60208385031215612615575f5ffd5b82356001600160401b0381111561262a575f5ffd5b8301601f8101851361263a575f5ffd5b80356001600160401b0381111561264f575f5ffd5b856020828401011115612660575f5ffd5b6020919091019590945092505050565b5f5f60408385031215612681575f5ffd5b50508035926020909101359150565b80151581146116d0575f5ffd5b5f5f604083850312156126ae575f5ffd5b82356126b9816121c3565b915060208301356126c981612690565b809150509250929050565b5f5f604083850312156126e5575f5ffd5b8235915060208301356126c981612690565b5f5f60408385031215612708575f5ffd5b8235612713816121c3565b915060208301356126c9816121c3565b5f5f5f5f5f60a08688031215612737575f5ffd5b8535612742816121c3565b94506020860135612752816121c3565b9350604086013592506060860135915060808601356001600160401b0381111561248c575f5ffd5b600181811c9082168061278e57607f821691505b6020821081036127ac57634e487b7160e01b5f52602260045260245ffd5b50919050565b5f5f84546127bf8161277a565b6001821680156127d657600181146127eb57612818565b60ff1983168652811515820286019350612818565b875f5260205f205f5b83811015612810578154888201526001909101906020016127f4565b505081860193505b50505083518060208601835e5f9101908152949350505050565b634e487b7160e01b5f52601160045260245ffd5b808202811582820484141761052b5761052b612832565b5f8261287757634e487b7160e01b5f52601260045260245ffd5b500490565b8181038181111561052b5761052b612832565b5f6020828403121561289f575f5ffd5b8151612231816121c3565b8082018082111561052b5761052b612832565b5f602082840312156128cd575f5ffd5b815161223181612690565b5f600182016128e9576128e9612832565b5060010190565b81356128fb816121c3565b81546001600160a01b0319166001600160a01b0391909116178155602082013560018201556040820135600282015560608201356003820155608082013560048201555f60a083013561294d81612690565b600592909201805492151560ff1660ff1993909316929092179091555050565b82815260e08101823561297f816121c3565b6001600160a01b031660208381019190915283013560408084019190915283013560608084019190915283013560808084019190915283013560a0838101919091528301356129cd81612690565b80151560c0840152509392505050565b634e487b7160e01b5f52603260045260245ffd5b601f821115612a3557805f5260205f20601f840160051c81016020851015612a165750805b601f840160051c820191505b81811015610ad0575f8155600101612a22565b505050565b6001600160401b03831115612a5157612a516122c4565b612a6583612a5f835461277a565b836129f1565b5f601f841160018114612a96575f8515612a7f5750838201355b5f19600387901b1c1916600186901b178355610ad0565b5f83815260208120601f198716915b82811015612ac55786850135825560209485019460019092019101612aa5565b5086821015612ae1575f1960f88860031b161c19848701351681555b505060018560011b0183555050505050565b60208152816020820152818360408301375f818301604090810191909152601f909201601f19160101919050565b6001600160a01b0386811682528516602082015260a0604082018190525f90612b4c9083018661259d565b8281036060840152612b5e818661259d565b90508281036080840152612b72818561224f565b98975050505050505050565b5f60208284031215612b8e575f5ffd5b815161223181612201565b6001600160a01b03868116825285166020820152604081018490526060810183905260a0608082018190525f90612bd29083018461224f565b979650505050505050565b604081525f612bef604083018561259d565b8281036020840152611453818561259d56fea2646970667358221220b3334d7acabf8a722ee0b9f905f1d5f263bca33b95c13e2501b71979853b3e0164736f6c634300081e0033",
  "linkReferences": {},
  "deployedLinkReferences": {},
  "immutableReferences": {
    "10118": [
      {
        "length": 32,
        "start": 955
      },
      {
        "length": 32,
        "start": 1887
      },
      {
        "length": 32,
        "start": 2970
      },
      {
        "length": 32,
        "start": 5242
      }
    ]
  },
  "inputSourceName": "project/contracts/AgentPass.sol",
  "buildInfoId": "solc-0_8_30-2ab1763addf533e59c14290670fcd4ca67ba7338"
}